S00C0000636C6F636B2E733337DC
S113000000000220310400005D0400005D040000D3
S11300105D0400005D0400005D0400005D04000058
S11300205D0400005D0400005D0400005D04000048
S11300305D0400005C0400005D040000A9300000C1
S11300405D040000753000005D0400005D040000E4
S11300505D0400005D0400005D0400005D04000018
S11300605D0400005D0400005D04000041300000F8
S11300705D0400005D0400005D0400005D040000F8
S11300805D0400005D0400005D0400005D040000E8
S11300905D0400005D0400005D0400005D040000D8
S11300A05D0400005D0400005D0400005D040000C8
S11300B05D0400005D040000453100005D040000A3
S11300C05D0400005D0400005D0400005D040000A8
S11300D05D0400005D0400005D04000010B5054CE3
S11300E0237833B9044B13B10448AFF300800123E0
S11300F0237010BD7800002000000000383D00008F
S113010008B5034B1BB103490348AFF3008008BD96
S1130110000000007C000020383D0000154B002B3F
S113012008BF134B9D46A3F5803A00218B460F462A
S11301301348144A121A03F04BFC0F4B002B00D047
S113014098470E4B002B00D0984700200021040054
S11301500D000D48002802D00C48AFF3008003F0D6
S113016013FC2000290003F049F903F0F9FB00BF58
S11301700000080000000220000000000000000051
S113018078000020A800002000000000000000000B
S113019080B483B000AF03463960FB71FB79002B58
S11301A00DD0FB79012B0AD0FB79022B07D0FB7908
S11301B0032B04D0FB79042B01D0FB79052B0122FE
S11301C03B6802FA03F30749FA7918461346DB0041
S11301D013449B000B441033186000BF0C37BD461A
S11301E080BC70470060004080B483B000AF034619
S11301F03960FB71FB79002B0DD0FB79012B0AD000
S1130200FB79022B07D0FB79032B04D0FB79042B59
S113021001D0FB79052B01223B6802FA03F307495D
S1130220FA7918461346DB0013449B000B44183339
S1130230186000BF0C37BD4680BC704700600040AA
S113024080B582B000AF0121104801F02DFA0121E0
S11302500F4801F029FA00237B600FE00D4A7B6808
S113026012F833000B4A7B68DB00134459680023FF
S1130270042202F005F87B6801337B607B68012B64
S1130280ECDD002318460837BD4680BD40810400DC
S113029000D204000C3A000080B582B000AF786050
S11302A07B68002B10DB7B68012B0DDC094A7B6823
S11302B012F83300074A7B68DB0013445B68194675
S11302C0FFF766FF002301E04FF0FF3318460837BD
S11302D0BD4680BD0C3A000080B582B000AF7860A6
S11302E07B68002B10DB7B68012B0DDC094A7B68E3
S11302F012F83300074A7B68DB0013445B68194635
S1130300FFF772FF002301E04FF0FF331846083770
S1130310BD4680BD0C3A000080B582B000AF3A4BB8
S11303205B6C394A43F400535364384BD3F820319F
S1130330364A43F00403C2F82031344BD3F8203159
S1130340324A23F44073C2F82031304BD3F8B8302A
S11303502E4A23F47063C2F8B8302C4BD3F8B8306B
S11303602A4A43F48063C2F8B830274B10221A6239
S113037000BF254BDB6A03F02003002BF9D0244B8C
S11303801B68234A43F001031360214BDB68204AB6
S113039043F08073D3601F4B1F4A1A601F4801F05B
S11303A0E7F9034603F5D52303F2FC437B607B683E
S11303B0DB081B4AA2FB03239B0A3B60194A3B68E8
S11303C0013B1361174B0222C3F8F020154B4FF485
S11303D08072C3F804234FF06043134AC3F8B02F6C
S11303E04FF06043114AC3F8802E4FF06043D3F8B6
S11303F0003E4FF0604243F00103C2F8003E012387
S113040018460837BD4680BD00800C40006000409F
S1130410F0ED00E0001000E0FF13014006000E00C4
S113042017916502000004E055CEACC50900010037
S1130430064880470649074A074B9A42BEBF51F80F
S1130440040B42F8040BF8E7FFF768FED50500003B
S1130450443D00000000002078000020FEE700BFBB
S113046080B400AF034BDB6C1B0EDBB21846BD46F9
S113047080BC7047B081E00F80B582B000AF00F05F
S11304801FF87860074B5B6803F00F037A6822FA61
S113049003F37B60044A7B6813607B681846083763
S11304A0BD4680BD00800C400800002080B400AF31
S11304B0024B1846BD4680BC704700BF006CDC028E
S11304C080B582B000AF334BDB6A03F47053B3F5ED
S11304D0805F0AD0B3F5005F03D0B3F5006F08D096
S11304E00BE02D4B1B687B6047E04FF400437B60BF
S11304F043E02A4B1B687B603FE0264BDB6803F438
S1130500E063B3F5007F1BD0B3F5007F05D8002B63
S113051024D0B3F5807F16D02BE0B3F5806F09D0DB
S1130520B3F5A06F03D0B3F5407F06D021E01C4B98
S11305307B6021E01B4B7B601EE01B4B7B601BE060
S11305401A4B7B6018E0FFF78BFF0346122B02D98E
S1130550174B7B6010E0174B7B600DE0FFF780FFCB
S11305600346122B02D9144B7B6005E0134B7B60CE
S113057002E000237B6000BF00BF064B1B689B0B9F
S113058003F0070301337A68B2FBF3F31846083724
S1130590BD4680BD00800C40040000200000002007
S11305A0003FAB01406F4001809FD500C0D8A70039
S11305B040B56400C0CF6A00804F120040420F0073
S11305C080B400AF024B1B681846BD4680BC704720
S11305D00000002080B400AF034B044A9A6000BFBF
S11305E0BD4680BC704700BF00ED00E00000000085
S11305F080B400AF4FF400431846BD4680BC70473A
S113060080B400AF4FF47A731846BD4680BC70477F
S113061080B400AF024B1B681846BD4680BC7047CF
S11306200400002080B483B000AF0346FB71FB7963
S1130630002B03D0054B01221A6602E0034B002273
S11306401A6600BF0C37BD4680BC704700A0084046
S113065080B483B000AF786000BF054B5A6E7B68EE
S11306601340002BF9D100BF0C37BD4680BC704746
S113067000A0084080B483B000AF7860054B9A6A4C
S11306807B68DB43034913408B6200BF0C37BD46D4
S113069080BC704700A0084080B500AF0022284904
S11306A0002002F00DF800222549012002F008F88C
S11306B000222349022002F003F8002220490320EB
S11306C001F0FEFF00221E49042001F0F9FF002280
S11306D01B49052001F0F4FF00221949062001F00E
S11306E0EFFF00221649072001F0EAFF0022FF2154
S11306F0002002F0A3F80022FF21012002F09EF85E
S11307000022FF21022002F099F80022FF21032099
S113071002F094F80022FF21042002F08FF8002256
S1130720FF21052002F08AF80022FF21062002F0B2
S113073085F80022FF21072002F080F800BF80BD69
S113074000F00FF080B500AF00222649072001F029
S1130750B7FF00222449062001F0B2FF00222249FB
S1130760052001F0ADFF00221F49042001F0A8FF7D
S113077000221D49032001F0A3FF00221A49022090
S113078001F09EFF00221849012001F099FF002288
S11307904FF02041002001F093FF002207210720A1
S11307A002F04CF800220721062002F047F800224C
S11307B00721052002F042F800220721042002F05C
S11307C03DF800220721032002F038F80022072117
S11307D0022002F033F800220721012002F02EF853
S11307E000BF80BD00E00F5000E00FF080B582B084
S11307F000AF0346FB710121244800F055FF03219B
S1130800234801F063F94021224800F01BFE012037
S113081001F0A8FA0121204800F046FF4FF0FF3014
S1130820FFF728FF1D4801F0E9FD0121082001F030
S113083043FE0121102001F03FFE0121802001F040
S11308403BFE01214FF4807001F036FE01214FF48C
S1130850007001F031FEFB79002B0DD04FF44020E5
S113086002F0AAF84FF4803001F004FE0C4BDB6F69
S11308700B4A43F00803D367FFF70EFF4FF0FF3036
S1130880FFF7E6FE00BF0837BD4680BDD0433E00FB
S113089002001E0080002A0000362C00F83C0000F4
S11308A000800C4080B58AB000AF78607B6842F26B
S11308B00E72934202DD42F20F737B607B6813F584
S11308C07A7F01DC3D4B7B607B68002B06DA78681D
S11308D003F042F878600123BB6101E00023BB61AF
S11308E04FF0FF30FFF7B4FE0120FFF79BFE00F04E
S11308F06DF80123FB6100233B6254E07A68FB69D5
S113090092FBF3F22E4B83FB02139910D317C91AEF
S11309100B469B000B445B00D11A0B46FB82BB6960
S1130920012B04D13B6A032B01D11023FB82FB8AE8
S1130930244A32F81330BB8200237B6227E0224929
S11309403A6A1346DB009B1A5B00CA187B6A13449D
S1130950CB331B783B611C493A6A1346DB009B1A74
S11309605B00CA187B6A1344C4331B78FB60BA8AE1
S11309707B6A42FA03F303F00103002B04D0012243
S11309803969F86801F0B8FD7B6A01337B627B6AE0
S1130990062BD4DDFA6913469B0013445B00FB610C
S11309A03B6A01333B623B6A032BA7DD0020FFF760
S11309B039FE00BF2837BD4680BD00BF19FCFFFFCC
S11309C067666666D43C00001C3A000080B500AF40
S11309D000227821012001F031FF00227821022039
S11309E001F02CFF00227821032001F027FF0022D0
S11309F07821042001F022FF00227821052001F053
S1130A001DFF00227821062001F018FF0022782122
S1130A10072001F013FF00BF80BD000080B584B043
S1130A2000AF03463960FB710023FB600023BB6009
S1130A30FB790E2B6BD801A252F823F0790A00003F
S1130A40830A00008D0A0000970A0000A10A000032
S1130A50AB0A0000B50A0000BF0A0000C90A000082
S1130A60D30A0000DD0A0000E70A0000F10A0000D2
S1130A70FB0A0000050B00000123FB600C23BB6094
S1130A8046E00023FB602023BB6041E00323FB60BE
S1130A902723BB603CE00223FB600C23BB6037E0F0
S1130AA00023FB601C23BB6032E00323FB600C23A8
S1130AB0BB602DE00423FB600C23BB6028E0002313
S1130AC0FB601E23BB6023E00523FB602723BB6080
S1130AD01EE00023FB602223BB6019E00023FB60BF
S1130AE02323BB6014E00723FB600C23BB600FE0EF
S1130AF00523FB600C23BB600AE00623FB600C2388
S1130B00BB6005E00723FB601D23BB6000E000BF62
S1130B103B68002B05D00122B968F86801F0ECFCB1
S1130B2004E00022B968F86801F0E6FC00BF103761
S1130B30BD4680BD80B58AB000AF7860786802F0A9
S1130B404FFF0346BB6100233B624FF0FF30FFF7CA
S1130B507FFD0120FFF766FDFFF7F4FD00233B62F4
S1130B6045E03A6ABB699A4203DA7B681B787B6288
S1130B7001E020237B627B6A203B7B62214A7B6A03
S1130B8032F81330FB820023FB6127E01E493A6AE6
S1130B901346DB009B1A9B00CA18FB6913440E33EF
S1130BA01B783B6118493A6A1346DB009B1A9B0089
S1130BB0CA18FB6913441B78FB60FA8AFB6942FA82
S1130BC003F303F00103002B05D0FB68396901220C
S1130BD0184601F091FCFB690133FB61FB690D2BA5
S1130BE0D4DD7B6801337B603B6A01333B623B6A43
S1130BF0062BB6DD0020FFF715FD00BF2837BD46E4
S1130C0080BD00BF1C3C00001C3A000080B400AF53
S1130C104FF080431B684FF0804223F001031360C0
S1130C2000BFBD4680BC704780B582B000AF78601D
S1130C300849786802F016FC03460749184602F092
S1130C40CFFD0346184602F067FE034618460837F0
S1130C50BD4680BD4260D53F96430B3D80B400AF96
S1130C604FF080439B6803F00203002B01D0012363
S1130C7000E000231846BD4680BC704780B400AF36
S1130C804FF080439B6803F00103002B01D0012344
S1130C9000E000231846BD4680BC704780B500AF15
S1130CA00121044800F000FD0121034800F0FCFC90
S1130CB000BF80BDD0433E0000E2040080B500AF19
S1130CC0FFF7A4FF0021024800F0EEFC00BF80BD46
S1130CD000E20400B0B58AB000AF7860174B07F1AA
S1130CE00C041D460FCD0FC495E8070084E80700E7
S1130CF07868FFF799FF03463B620523BB75002321
S1130D003B77012387F8243007F10C03184601F0E0
S1130D102CFF00BFFFF7B2FF034683F00103DBB2F1
S1130D20002BF7D1FFF79AFF0346002B01D00023D5
S1130D3000E0012318462837BD46B0BD0C3D000035
S1130D4080B487B000AFF860B9607A60FB6803F1E3
S1130D500473DA00BB6813449B007B617B697A6887
S1130D601A6000BF1C37BD4680BC704780B485B094
S1130D7000AF786039607B6803F10473DA003B6884
S1130D8013449B00FB60FB681B6818461437BD4680
S1130D9080BC704780B483B000AF786001227B6868
S1130DA002FA03F318460C37BD4680BC704780B482
S1130DB085B000AF78607B68002B03D07B68B3F507
S1130DC0004F00BF7B68B3FA83F3DBB2C3F11F03A8
S1130DD0FB60FB6818461437BD4680BC70470000B2
S1130DE080B400AF034BDB6C1B0EDBB21846BD4670
S1130DF080BC7047B081E00F80B400AF034BDB6C64
S1130E001B0CDBB21846BD4680BC7047B081E00FB6
S1130E1080B582B000AFFFF7EFFF03464A2B04D042
S1130E20792B02D0482B23D024E0154B1B699BB2AD
S1130E301B029BB203F47C53FB80114B9B691B097F
S1130E401B0103F0F0039AB2FB881343FB800C4BA5
S1130E50DB691B0903F00F039AB2FB881343FB8081
S1130E60FB88B3F5017F01D3064B04E0064B02E097
S1130E70054B00E0002318460837BD4680BD00BF7F
S1130E80D0FF0FE000366E010048E80180B584B061
S1130E9000AF78600123FB60FFF7BAFF02467B686E
S1130EA0934204D80023FB600023BB600BE0FFF7F0
S1130EB0AFFF03465B007A689A4202D80123BB6005
S1130EC001E00223BB60FA681E210848FFF738FFDF
S1130ED0064B5B6823F48072BB681B02034913430F
S1130EE04B6000BF1037BD4680BD00BF00800C4082
S1130EF080B582B000AF1E210448FFF737FF786049
S1130F007B6818460837BD4680BD00BF00800C4092
S1130F1080B582B000AF214B5B6903F4E063B3F5A5
S1130F20007F1CD0B3F5007F05D8002B25D0B3F586
S1130F30807F1FD02AE0B3F5C06F24D0B3F5E06FF3
S1130F401ED0B3F5407F21D1FFF74AFF0346122B91
S1130F5002D9134B7B601CE0124B7B6019E0FFF756
S1130F603FFF0346122B02D90F4B7B6011E00F4B5E
S1130F707B600EE00E4B7B600BE00E4B7B6008E069
S1130F800D4B7B6005E00D4B7B6002E000237B6032
S1130F9000BF7B6818460837BD4680BD00800C4002
S1130FA0804F120040420F0040B56400C0CF6A0079
S1130FB0C0D8A700809FD500406F4001003FAB011F
S1130FC080B582B000AF0D4800F0D2FC0346FB7040
S1130FD0FB78072B05D0092B07D1FFF771FA78604E
S1130FE006E0FFF795FF786002E000237B6000BF16
S1130FF07B6818460837BD4680BD00BF06000E005A
S113100080B485B000AF78603960204B5B6803F032
S11310100703FB60FB68012B01D9042B02D10023D9
S1131020FB7202E00123FB7200BF7B68184A934203
S113103007D9FB7A002B01D0052300E00423FB60D1
S113104016E07B68124A93420BD87B68114A93429C
S113105007D9FB7A002B01D0032300E00123FB60B6
S113106006E0FB7A002B01D0022300E00023FB60A2
S1131070064B5B6823F007020449FB6813434B608B
S113108000BF1437BD4680BC704700BF00000C4051
S11310900048E8010024F40080B582B000AF0E4B94
S11310A0DB6B002B14BF01230023FB710A4B41F6B9
S11310B07132DA63FFF7FAF9034600211846FFF7A5
S11310C09FFFFB79002B02D0034B0022DA6300BFA1
S11310D00837BD4680BD00BF00000C4080B584B019
S11310E000AF786039600C4BDB6B002B14BF01231D
S11310F00023FB73084B41F67132DA633968786870
S1131100FFF77EFFFB7B002B02D0034B0022DA6348
S113111000BF1037BD4680BD00000C4090B585B0BF
S113112000AF78600023BB607B68344A934203D0ED
S1131130334A934200D000E000BF786800F018FC06
S11311400346FB607B682D4A934203D02C4A9342AA
S113115006D00CE02B4B9B6A03F00303FB6006E014
S1131160284B9B6A9B0803F00303FB6000BFFB68EA
S1131170032B39D801A252F823F000BFB3110000A9
S11311808D110000951100009D110000FFF730FA49
S1131190B8602DE0FFF73CFAB86029E0FFF76CF97E
S11311A00446FFF7A5FE0346013324FA03F3BB60AC
S11311B01EE00023BB607B68104A934203D07B6827
S11311C00F4A934213D10F4B9A6A7B680B498B42A7
S11311D001D1102300E0142322FA03F3002B06D0DC
S11311E0FFF70EFAB86002E00023BB6000E000BF26
S11311F0BB6818461437BD4690BD00BF02001E00F0
S11312000300200000800C4080B483B000AF7860FD
S1131210094B5B6D03F00103002B07D100BF064BA4
S11312201A6D7B681340002BF9D100E000BF0C3726
S1131230BD4680BC704700BF00800C4080B582B0C2
S113124000AF104800F094FB0346FB70FB78032BBF
S113125007D0092B09D0022B0BD1FFF7D9F97860FD
S11312600AE0FFF7C5F9786006E0FFF729F978602E
S113127002E000237B6000BF7B6818460837BD4648
S113128080BD00BF0723260080B400AF00BFBD4669
S113129080BC704780B400AF00BFBD4680BC7047BF
S11312A090B585B000AF78607B681B0903F00F032D
S11312B0BB60BB68013B0C2B00F2AE8001A252F86C
S11312C023F000BFF91200001914000019140000E3
S11312D00913000019140000191400001D13000064
S11312E04B130000D7130000191400001914000058
S11312F019140000311300004B4B1B689B0B03F0C7
S113130007030133FB608AE0474B9B6803F00F033C
S1131310FB60F868FFF73EFDF86080E0424B5B68D5
S113132003F00F03FB60F868FFF734FDF86076E024
S11313303D4B5B681B0A03F00103FB60FB68013350
S11313401846FFF727FDF86069E07B68374A934247
S113135018D0364A934203D8354A934207D036E030
S1131360344A934219D0344A934226D02FE02E4B6C
S11313709B6E1B0903F00F03FB60F868FFF70AFD7F
S1131380F86027E0284B9B6E1B0A03F00F03FB60F9
S1131390F868FFF7FFFCF8601CE0234B9B6E1B0B07
S11313A003F003041020FFF702FD03462344FB600F
S11313B0F868FFF7EFFCF8600CE01B4B9B6E03F042
S11313C00303FB60F868FFF7E5FCF86002E0012323
S11313D0FB6000BF23E07B68184A934203D0184A9D
S11313E093420AD014E0104B1B6F03F00303FB601D
S11313F0F868FFF7CFFCF8600DE00B4B1B6F1B097F
S113140003F00303FB60F868FFF7C4FCF86002E034
S11314100123FB6000BF02E00123FB6000BFFB6807
S113142018461437BD4690BD00800C408026160037
S11314308016120080002A0080062E0090071A00F1
S113144090171C0090B585B000AF786039607B6858
S11314501B0903F00F03FB60FB68013B0C2B00F23C
S11314600F8101A252F823F09D14000081160000A0
S113147081160000D11400008116000081160000BE
S1131480191500006B1500002D16000081160000D0
S11314908116000081160000F91400003B68002B3F
S11314A002D03B68082B00BFFFF7F6FD774B1B68A3
S11314B023F4E0323B68013B9B03744913430B6004
S11314C0FEF7DAFFB8600021B868FFF707FED8E03E
S11314D03B68002B03D03B68B3F5007F00BF38683E
S11314E0FFF765FC3860694B9B6823F00F0267497E
S11314F03B6813438B60C4E03868FFF758FC03462D
S1131500013B3B60614B5B6823F480723B681B02C8
S11315105E4913434B60B4E03B68002B03D03B6847
S1131520B3F5007F00BFFFF7B7FDFEF7A5FF024646
S11315303B68B2FBF3F31846FFF7A8FC3868FFF7E3
S113154036FC3860514B5B6823F00F024F493B680F
S113155013434B60FEF790FFB8600021B868FFF7B3
S1131560BDFDB868FFF792FC8BE07B68484A934264
S11315701ED0474A934203D8464A934207D054E0C8
S1131580454A934225D0454A93423ED04DE004203B
S1131590FFF73AFE3868FFF70AFC38603B4B9B6E56
S11315A023F0F0023B681B01384913438B663CE08F
S11315B00420FFF729FE3868FFF7F9FB3860334B46
S11315C09B6E23F470623B681B02304913438B66A5
S11315D02BE03B680F2B02D93B68802B00BF042013
S11315E0FFF712FE3868FFF7E2FB3860274B9B6E6B
S11315F023F440541020FFF7DAFB02463B689B1AA1
S11316001B03224A234393660FE00420FFF7FCFDEB
S11316103868FFF7CCFB38601C4B9B6E23F0030249
S11316201A493B6813438B6600BF2AE07B681C4A57
S1131630934203D01B4A934210D020E04020FFF78E
S1131640E3FD3868FFF7B3FB3860104B1B6F23F0E2
S113165003020E493B6813430B6710E04020FFF779
S1131660D3FD3868FFF7A3FB3860084B1B6F23F0EA
S113167030023B681B01054913430B6700BF00E0C0
S113168000BF00BF1437BD4690BD00BF00800C40B2
S1131690802616008016120080002A0080062E0084
S11316A090071A0090171C0080B586B000AF7860D0
S11316B00B46FB7000233B617B681B0A03F00F039E
S11316C0013B092B44D801A252F823F0071700006C
S11316D00D170000F5160000511700005117000007
S11316E0131700001D1700005117000051170000C8
S11316F027170000184B7B61FEF7BEFE0346184611
S1131700FFF7C4FB12E0154B7B610FE0144B7B61C8
S11317100CE0144B7B6101233B6107E0124B7B61BE
S113172010233B6102E0114B7B6100BF7B681B0B04
S113173003F01F03FB603B69002B02D03869FFF7FD
S113174063FDFB781A46F9687869FFF7F9FA00E057
S113175000BF1837BD4680BD40800C4008800C4057
S113176044800C4058800C4060800C4078800C40D1
S113177090B585B000AF78607B6803F47813B3F557
S1131780D01F00F0B480B3F5D01F1AD8B3F5602F82
S113179000F0C880B3F5602F08D8B3F5003F45D0FA
S11317A0B3F5802F36D0002B30D0D2E0B3F5901FA4
S11317B045D0B3F5B01F50D0B3F5801F00F0B6800C
S11317C0C7E0B3F5181F00F0B580B3F5181F0BD8A8
S11317D0B3F5F01F2ED0B3F5001F00F08380B3F5EE
S11317E0E01F00F09180B4E0B3F5301F56D0B3F59C
S11317F0301F03D8B3F5281F3DD0AAE0B3F5381F36
S113180063D0B3F5781F00F09980A2E0FEF758FE8C
S1131810F860A1E0FEF754FEF860524B9B6803F0B9
S11318200F03FA6822FA03F3FB6095E0FEF724FE47
S1131830F86091E04C48FFF771FCF8608CE04A488E
S1131840FFF76CFCF860474B9B6E1B0903F00F031A
S1131850FA6822FA03F3FB607EE04348FFF75EFC7C
S1131860F860404B9B6E1B0A03F00F03FA6822FAE0
S113187003F3FB6070E03C48FFF750FCF860394B21
S11318809B6E1B0B03F003041020FFF790FA034632
S11318902344FA6822FA03F3FB605DE03248FFF761
S11318A03DFCF8602F4B9B6E1B0B03F00303FA689F
S11318B022FA03F3FB602B4BDB6F03F007030133C6
S11318C0FA68B2FBF3F3FB6046E02748FFF726FC17
S11318D0F860244B9B6E03F00303FA6822FA03F3C7
S11318E0FB6039E02148FFF719FCF86034E01F4839
S11318F0FFF714FCF8601B4B1B6F03F00303FA683B
S113190022FA03F3FB6027E01848FFF707FCF860AE
S1131910144B1B6F1B0903F00303FA6822FA03F349
S1131920FB6019E0FFF74CFBF86015E0FFF7F0FAF5
S1131930F86011E0FFF782FCF8600DE0FEF79CFD13
S113194004467868FFF7ACFC0346B4FBF3F3FB6092
S113195002E00023FB6000BFFB6818461437BD4655
S113196090BD00BF00800C4002001E000300200058
S113197080B485B000AF78600123FB737B6803F00B
S11319800F03BB60BB68013B062B00F2938001A2EE
S113199052F823F0B1190000E7190000231A0000DF
S11319A0B51A0000B51A00005F1A0000811A000081
S11319B0454BDB6A03F47053B3F5805F09D0B3F58C
S11319C0005F03D0B3F5006F06D008E00223FB7379
S11319D008E00323FB7305E00423FB7302E0052303
S11319E0FB7300BF69E0384B9B6A03F00303022BCF
S11319F006D0032B07D0012B08D10323FB730FE080
S1131A000223FB730CE00623FB7309E02E4B9B6A55
S1131A1003F48033002B02D00A23FB7300E000BFE1
S1131A204BE0294B9B6A03F00C03082B06D00C2BCC
S1131A3007D0042B08D10323FB730FE00223FB73AD
S1131A400CE00623FB7309E01F4B9B6A03F480132D
S1131A50002B02D00A23FB7300E000BF2DE01A4BD9
S1131A601B6803F08053002B03D0B3F1805F03D0D5
S1131A7023E00723FB7302E00923FB7300BF1CE090
S1131A80114BDB6A03F46033B3F5803F08D0B3F540
S1131A90003F08D0B3F5004F08D10923FB7308E0D9
S1131AA00223FB7305E00323FB7302E00123FB73B2
S1131AB000BF02E00023FB7300BFFB7B1846143712
S1131AC0BD4680BC704700BF00800C4080B588B024
S1131AD000AF78600B46FB700323FB610323FB76A6
S1131AE000233B617B6803F00F03FB60FB68013B51
S1131AF0062B00F2288101A252F823F0191B0000E2
S1131B00EF1B0000EF1B0000471D0000471D0000F5
S1131B10B51C0000DF1C0000FB78023B082B00F220
S1131B20148101A252F823F04D1B0000571B000042
S1131B30611B0000A31B00004B1D00004B1D000097
S1131B404B1D00004B1D00004B1D00000423FB61D6
S1131B500023FB7631E00323FB610123FB762CE0B9
S1131B600223FB610223FB76FFF752F9034601339C
S1131B701846FFF78BF9FEF723FD0246764B9A428F
S1131B8006D9764B1B68754A43F06003136014E072
S1131B90724B1B6823F06003704A43F02003136008
S1131BA00BE00123FB610323FB76FFF731F90346C6
S1131BB001331846FFF76AF900BFFB7E01220121B9
S1131BC0184600F0EDF8FFF767FAFFF75DFB634A8C
S1131BD0FB695362FEF750FCB860B868FFF756F92A
S1131BE00021B868FFF77AFAFFF754FBB0E0FB78FE
S1131BF0013B092B00F2AB8001A252F823F000BF95
S1131C00291C00002F1C00003F1C00004F1D000079
S1131C104F1D00004F1C00004F1D00004F1D000011
S1131C204F1D00006B1C000000237B6122E0012299
S1131C300121002000F0B4F802237B611AE00122A4
S1131C400121012000F0ACF801237B6112E0FEF7D2
S1131C5013FCB860B868FFF719F901220421404861
S1131C60FFF76EF803237B6104E000237B6101230B
S1131C703B6100BFFB68022B0DD1384B9B6A23F4F8
S1131C80803323F003037A691A433B691B04334905
S1131C9013438B625CE0314B9B6A23F4801323F083
S1131CA00C037A6992001A433B691B052B491343C1
S1131CB08B624DE0FB78072B02D0092B07D047E05D
S1131CC0264B1B68254A23F08053136006E0234B00
S1131CD01B68224A43F08053136000BF38E0FB784E
S1131CE0032B14D0092B22D0022B00D030E0012288
S1131CF00121002000F054F8184B40225A6200BF22
S1131D00164BDB6A03F48033002BF9D01AE001226E
S1131D100121012000F044F8104B60225A6200BFF8
S1131D200E4BDB6A03F40033002BF9D00AE00B4BB3
S1131D3020225A6200BF094BDB6A03F40043002BE4
S1131D40F9D000BF04E000BF02E000BF00E000BF24
S1131D502037BD4680BD00BF0048E80100800C402C
S1131D6040800C4080B483B000AF78600B4B9B6D17
S1131D7003F00803002B0CD17B6803F007037B609E
S1131D80064BDB6F23F0070204497B681343CB67E0
S1131D9000E000BF0C37BD4680BC704700800C409B
S1131DA080B586B000AF0346FB710B46BB7113468A
S1131DB07B71FB79042B48D801A252F823F000BFB1
S1131DC00D1E0000FF1D0000E31D0000D51D0000D6
S1131DD0F11D000001233B610223FB6001237B61B1
S1131DE01DE004233B610823FB6003237B6116E0B1
S1131DF010233B612023FB6005237B610FE040231C
S1131E003B618023FB6007237B6108E04FF4807310
S1131E103B614FF40073FB6009237B6100BFBB7916
S1131E20002B0ED00B4A3B6913627B79002B0DD03B
S1131E3000BF79690848FEF799FF0346002BF8D0E4
S1131E4004E0044AFB68136200E000BF1837BD4693
S1131E5080BD00BF00800C402C800C4080B500AFDA
S1131E60FEF70AFB00BF80BD80B400AF034B002225
S1131E70C3F8842000BFBD4680BC704700800C407E
S1131E8080B400AF044B45F60E02C3F8842000BFB3
S1131E90BD4680BC704700BF00800C4080B584B054
S1131EA000AF0346FB71FB79002B0BD12B4BDB6A94
S1131EB02B4A13601120FFF75BFD03461A46294B9A
S1131EC01A7047E0254BD3F8843003F00103FB601C
S1131ED0FFF7D6FF0023BB60214B1B6803F001030F
S1131EE0BA681343BB601E4B1B6803F01003BA6847
S1131EF01343BB601A4B1B6803F04003BA681343D7
S1131F00BB60174B1B6803F00403BA681343BB6040
S1131F10134B1B6803F48073BA681343BB600F4A06
S1131F20BB6813620F4B1B78052B05D00D4B1B7838
S1131F3019461120FFF7CAFD094B1B6803F0010382
S1131F40002B02D1054B02221A62FB68002B01D040
S1131F50FFF78AFF00BF1037BD4680BD00800C40EC
S1131F60940000209800002080B483B000AF174B89
S1131F701B699BB21B029BB203F47C53FB80134B83
S1131F809B691B091B0103F0F0039AB2FB881343FE
S1131F90FB800E4BDB691B0903F00F039AB2FB882D
S1131FA01343FB80FB88B3F5827F03D3FB88B3F52F
S1131FB0017F01D1012300E0002303F00103DBB220
S1131FC018460C37BD4680BC704700BFD0FF0FE0F9
S1131FD080B400AF00BFBD4680BC704780B400AF82
S1131FE000BFBD4680BC704780B586B000AF0346D5
S1131FF0FB71FB79002B02D00020FFF74FFF1F4B32
S11320001B691E4A43F004031361FFF7ADFF034647
S1132010FB75FB7D002B11D0194B1A68194B13402B
S1132020FB60174AFB68C2F88030154B5B6823F0ED
S113203046033B61124A3B69C2F88430FFF7C8FF8C
S113204030BFFFF7CBFFFB7D002B05D00C4AFB68AC
S113205013600B4A3B695360FB79002B02D00120CB
S1132060FFF71CFFFB7983F00103DBB2002B01D0E7
S1132070FFF7F4FE00BF1837BD4680BD00ED00E059
S113208000E100E09CF1FD0080B487B000AFF8608F
S1132090B9607A60FB6803F10473DA00BB68134427
S11320A09B007B617B697A681A6000BF1C37BD4660
S11320B080BC704780B485B000AFF860B9607A60C6
S11320C0FB681A68BB68DB431A407B681A43FB68E9
S11320D01A6000BF1437BD4680BC704780B483B01B
S11320E000AF7860044A7B68C2F81C3100BF0C372B
S11320F0BD4680BC704700BF0060004080B483B020
S113210000AF03463960FB71FB79002B0DD0FB79DE
S1132110012B0AD0FB79022B07D0FB79032B04D0C7
S1132120FB79042B01D0FB79052B01223B6802FAD1
S113213003F30749FA7918461346DB0013449B005E
S11321400B441433186000BF0C37BD4680BC704785
S11321500060004080B483B000AF03463960FB7177
S1132160FB79002B0DD0FB79012B0AD0FB79022BD4
S113217007D0FB79032B04D0FB79042B01D0FB7926
S1132180052B01223B6802FA03F30749FA79184642
S11321901346DB0013449B000B441033186000BF4C
S11321A00C37BD4680BC70470060004080B586B0E7
S11321B000AFB9607A601A460346FB731346BB73DB
S11321C000237B61FB7B002B0DD0FB7B012B0AD012
S11321D0FB7B022B07D0FB7B032B04D0FB7B042B64
S11321E001D0FB7B052B7B68072B0ED87B689B00FB
S11321F0072202FA03F1FA7B7B689B0002FA03F3DD
S11322001A461A48FFF756FF10E07B68083B7B61CB
S11322107B699B00072202FA03F1FA7B7B699B002E
S113222002FA03F31A461248FFF744FFBB7B1A462F
S113223079681048FFF728FF97F820301A46796824
S11322400D48FFF721FF01227B6802FA03F31846C9
S1132250FFF744FF97F824301A4679680748FFF7D8
S113226013FF00BF1837BD4680BD00BF00610040AA
S113227004610040086100400C61004010610040AE
S113228080B584B000AFB9607B600346FB7313462E
S1132290BB73FB7B002B0DD0FB7B012B0AD0FB7B9C
S11322A0022B07D0FB7B032B04D0FB7B042B01D038
S11322B0FB7B052BBB7B002B0DD07B68002B05D053
S11322C0FB7BB9681846FFF745FF04E0FB7BB96860
S11322D01846FFF713FFBB68072B20D82D49FA7B5C
S11322E01346DB0013449B000B4404331A68BB6899
S11322F09B000F2101FA03F3DB431340B97BBA6857
S1132300920001FA02F211462248FA7B194313465D
S1132310DB0013449B0003440433196025E01D498A
S1132320FA7B1346DB0013449B000B4408331A6802
S1132330BB6803F18043083B9B000F2101FA03F3C0
S1132340DB4302EA0301BA7BBB6803F18043083B29
S11323509B0002FA03F30F48FA7B19431346DB0090
S113236013449B00034408331960BB7B002B0DD13D
S11323707B68002B05D0FB7BB9681846FFF7EAFEA3
S113238004E0FB7BB9681846FFF7B8FE00BF1037BE
S1132390BD4680BD0060004080B483B000AF0346FA
S11323A0FB71FB79002B06D0084B1B68074A43F0EE
S11323B00103136005E0054B1B68044A23F0010385
S11323C0136000BF0C37BD4680BC704700A00840B6
S11323D080B487B000AFF860B9607A60FB6803F13D
S11323E00473DA00BB6813449B007B617B697A68E1
S11323F01A6000BF1C37BD4680BC704780B584B0EE
S113240000AF78601A4B5B68FB600020FFF7C4FFE5
S1132410FB6823F4830323F01F03FB607B685B6882
S1132420FA681343FB607B681B7A1A46FB68134304
S1132430FB607B685B7A1A46FB681343FB607B682E
S1132440DB68FA681343FB607B681B8A1A46FB68E7
S11324501343FB60064AFB6853607B681B78002BC0
S113246002D00120FFF798FF00BF1037BD4680BDA2
S113247000A0084080B485B000AF78600D4B5B6865
S1132480FB60FB6823F48033FB607B68002B08D07F
S1132490B3F5803F00D005E0FB6843F48033FB6074
S11324A000E000BF034AFB68536000BF1437BD4619
S11324B080BC704700A0084080B483B000AF0346DE
S11324C00A46FB8013467B717B79002B06D0094BAF
S11324D09A68FB88074913438B6006E0054B9A68AA
S11324E0FB88DB43034913408B6000BF0C37BD46B8
S11324F080BC704700A0084080B584B000AFF8608D
S1132500B9601346FB71FB68072B00F2B38001A28C
S113251052F823F0352500005D25000085250000D4
S1132520AD250000D5250000FD250000252600006E
S11325304D260000BB681F2B06DCBB68FA791946E0
S11325404F48FFF745FF96E0BB68203BBB60BB6884
S1132550FA7919464B48FFF73BFF8CE0BB681F2B09
S113256006DCBB68FA7919464748FFF731FF82E079
S1132570BB68203BBB60BB68FA7919464348FFF748
S113258027FF78E0BB681F2B06DCBB68FA79194685
S11325903F48FFF71DFF6EE0BB68203BBB60BB6894
S11325A0FA7919463B48FFF713FF64E0BB681F2B19
S11325B006DCBB68FA7919463748FFF709FF5AE089
S11325C0BB68203BBB60BB68FA7919463348FFF708
S11325D0FFFE50E0BB681F2B06DCBB68FA79194686
S11325E02F48FFF7F5FE46E0BB68203BBB60BB68A5
S11325F0FA7919462B48FFF7EBFE3CE0BB681F2B2A
S113260006DCBB68FA7919462748FFF7E1FE32E099
S1132610BB68203BBB60BB68FA7919462348FFF7C7
S1132620D7FE28E0BB681F2B06DCBB68FA79194685
S11326301F48FFF7CDFE1EE0BB68203BBB60BB68B4
S1132640FA7919461B48FFF7C3FE14E0BB681F2B39
S113265006DCBB68FA7919461748FFF7B9FE0AE0A9
S1132660BB68203BBB60BB68FA7919461348FFF787
S1132670AFFE00E000BF00BF1037BD4680BD00BF05
S113268040A0084050A0084044A0084054A008407E
S113269048A0084058A008404CA008405CA008404E
S11326A0CCA00840B4A00840D0A00840B8A008407E
S11326B0D4A00840BCA00840D8A00840C0A008404E
S11326C080B487B000AFF860B9607A60FB68072B0C
S11326D000F2AC8001A252F823F000BFFD260000F6
S11326E02127000045270000692700008D270000EE
S11326F0B5270000DD270000052800004E4B1B6CA9
S11327007B61BB68DB437A6913407B61BA687B6891
S113271013407A6913437B61474A7B69136486E0FB
S1132720454B5B6C7B61BB68DB437A6913407B611F
S1132730BA687B6813407A6913437B613E4A7B69BC
S1132740536474E03C4B9B6C7B61BB68DB437A69EC
S113275013407B61BA687B6813407A6913437B61D9
S1132760354A7B69936462E0334BDB6C7B61BB6805
S1132770DB437A6913407B61BA687B6813407A69EA
S113278013437B612C4A7B69D36450E02A4BD3F812
S1132790CC307B61BB68DB437A6913407B61BA68E8
S11327A07B6813407A6913437B61234A7B69C2F8CF
S11327B0CC303CE0204BD3F8D0307B61BB68DB43AA
S11327C07A6913407B61BA687B6813407A69134362
S11327D07B61194A7B69C2F8D03028E0164BD3F8E4
S11327E0D4307B61BB68DB437A6913407B61BA6890
S11327F07B6813407A6913437B610F4A7B69C2F893
S1132800D43014E00C4BD3F8D8307B61BB68DB4385
S11328107A6913407B61BA687B6813407A69134311
S11328207B61054A7B69C2F8D83000E000BF00BF75
S11328301C37BD4680BC704700A0084080B487B0F8
S113284000AFF860B9607A60FB68072B00F2AC80D7
S113285001A252F823F000BF792800009D2800004F
S1132860C1280000E52800000929000031290000E2
S113287059290000812900004E4B1B6D7B61BB6808
S1132880DB437A6913407B61BA687B6813407A69D9
S113289013437B61474A7B69136586E0454B5B6D57
S11328A07B61BB68DB437A6913407B61BA687B68F0
S11328B013407A6913437B613E4A7B69536574E034
S11328C03C4B9B6D7B61BB68DB437A6913407B6146
S11328D0BA687B6813407A6913437B61354A7B6924
S11328E0936562E0334BDB6D7B61BB68DB437A69E4
S11328F013407B61BA687B6813407A6913437B6138
S11329002C4A7B69D36550E02A4BD3F8B4307B6101
S1132910BB68DB437A6913407B61BA687B68134008
S11329207A6913437B61234A7B69C2F8B4303CE083
S1132930204BD3F8B8307B61BB68DB437A69134022
S11329407B61BA687B6813407A6913437B61194AD7
S11329507B69C2F8B83028E0164BD3F8BC307B61F1
S1132960BB68DB437A6913407B61BA687B681340B8
S11329707A6913437B610F4A7B69C2F8BC3014E067
S11329800C4BD3F8C0307B61BB68DB437A691340DE
S11329907B61BA687B6813407A6913437B61054A9B
S11329A07B69C2F8C03000E000BF00BF1C37BD46E1
S11329B080BC704700A0084080B483B000AF78604A
S11329C0064B5B6823F4E01204497B6813434B60B5
S11329D000BF0C37BD4680BC704700BF00A0084054
S11329E080B487B000AFF860B9607A60FB6803F127
S11329F00473DA00BB6813449B007B617B697A68CB
S1132A001A6000BF1C37BD4680BC704780B485B0D7
S1132A1000AF786039607B68002B02D0012B03D0B3
S1132A2008E0064BFB6002E0054BFB6000BFFB685F
S1132A303A681A601437BD4680BC704708000840E5
S1132A400C00084080B582B000AF0346FB71FB79EF
S1132A501A4600210348FFF7C3FF00BF0837BD46ED
S1132A6080BD00BF0000084080B485B000AF78602E
S1132A707B681B78002B02D00123FB6001E000235C
S1132A80FB607B685B78002B03D0FB6843F0020398
S1132A90FB607B689B78002B03D0FB6843F0040346
S1132AA0FB60044AFB68136000BF1437BD4680BC5A
S1132AB0704700BF0000084080B485B000AF786064
S1132AC01A4B5B69DBB29B00DBB203F03C03FB7384
S1132AD0164B1B699B09DBB203F00303DAB2FB7BE1
S1132AE01343FB737B68FA7B9A70104B1B69DBB250
S1132AF003F03F03DAB27B685A700C4B9B691B09E5
S1132B00DBB21B01FB73094BDB691B09DBB203F06E
S1132B100F03DAB2FB7B1343FB737B68FA7B1A70F7
S1132B2000BF1437BD4680BC704700BFD0FF0FE024
S1132B3080B400AF4FF080439B6803F00103002B87
S1132B4001D0012300E000231846BD4680BC704735
S1132B5080B483B000AF78604FF080427B689361AB
S1132B6000BF0C37BD4680BC704780B582B000AF53
S1132B7078607B68DB68002B02D07B68DB68012B04
S1132B8000BF7B685B68002B03DB7B685B680F2BF3
S1132B9000BF7B681B78002B08D04FF080431B6874
S1132BA04FF0804243F08043136007E04FF08043CE
S1132BB01B684FF0804223F0804313604FF0804342
S1132BC01B684FF0804223F0706313604FF0804322
S1132BD01B687A685268120611464FF080420B4314
S1132BE013607B681B7A002B08D04FF080431B686E
S1132BF04FF0804243F40033136007E04FF080430A
S1132C001B684FF0804223F4003313607B685B7AC7
S1132C10002B08D04FF080431B684FF0804243F4F0
S1132C208033136007E04FF080431B684FF080420D
S1132C3023F4803313604FF080431B684FF08042CD
S1132C4023F4E06313604FF080431B687A68927A40
S1132C50120211464FF080420B4313607B68DB7A0B
S1132C60002B0BD0012B00D011E04FF080431B68E8
S1132C704FF0804243F01003136008E04FF08043AC
S1132C801B684FF0804223F01003136000BF4FF025
S1132C9080431B687A68D268920011464FF08042E4
S1132CA00B4313607B685B69184600F050F87B683F
S1132CB01B7E002B08D04FF080431B684FF08042EE
S1132CC043F00103136007E04FF080431B684FF0AB
S1132CD0804223F0010313607B681B7C002B11D01E
S1132CE07B681B7E002B0DD000BFFFF721FF03463E
S1132CF083F00103DBB2002BF7D17B681B7C184601
S1132D0000F007F80120FFF723FF00BF0837BD4696
S1132D1080BD80B483B000AF0346FB71FB79002B08
S1132D2008D04FF080435B684FF0804243F48073D7
S1132D30536007E04FF080435B684FF0804223F418
S1132D408073536000BF0C37BD4680BC704780B4AD
S1132D5083B000AF78607B68002B02DD7B683F2B7B
S1132D6000BF4FF080435B6823F03F027B684FF065
S1132D70804113434B6000BF0C37BD4680BC704795
S1132D8080B483B000AF0346FB7197F90730002B82
S1132D900BDBFB7903F01F02064997F907305B0947
S1132DA0012000FA02F241F8232000BF0C37BD468F
S1132DB080BC704700E100E080B483B000AF0346FC
S1132DC0FB7197F90730002B0CDBFB7903F01F0232
S1132DD0074997F907305B09012000FA02F26033D2
S1132DE041F8232000BF0C37BD4680BC704700BFAC
S1132DF000E100E080B483B000AF03463960FB71AA
S1132E0097F90730002B0ADB3B68DAB20C4997F9D3
S1132E1007305201D2B20B4483F800230AE03B6826
S1132E20DAB20849FB7903F00F03043B5201D2B232
S1132E300B441A7600BF0C37BD4680BC704700BFF8
S1132E4000E100E000ED00E080B582B000AF786002
S1132E507B68013BB3F1807F01D301230FE00A4A71
S1132E607B68013B536007214FF0FF30FFF7C2FF3F
S1132E70054B00229A60044B07221A60002318466F
S1132E800837BD4680BD00BF10E000E080B500AF4C
S1132E90FDF7F2FA00BF80BD80B400AF034BDB6CDA
S1132EA01B0EDBB21846BD4680BC7047B081E00FF4
S1132EB080B483B000AF7860044A7B68C2F81C31E8
S1132EC000BF0C37BD4680BC704700BF00600040A7
S1132ED080B483B000AF03463960FB71FB79002BEB
S1132EE00DD0FB79012B0AD0FB79022B07D0FB799B
S1132EF0032B04D0FB79042B01D0FB79052B012291
S1132F003B6802FA03F30749FA7918461346DB00D3
S1132F1013449B000B441433186000BF0C37BD46A8
S1132F2080BC70470060004080B483B000AF0346AB
S1132F303960FB71FB79002B0DD0FB79012B0AD092
S1132F40FB79022B07D0FB79032B04D0FB79042BEC
S1132F5001D0FB79052B01223B6802FA03F30749F0
S1132F60FA7918461346DB0013449B000B441033D4
S1132F70186000BF0C37BD4680BC7047006000403D
S1132F8080B584B002AF396011461A460346FB711E
S1132F900B46BB7113467B71BA79F8793B7C01937C
S1132FA07B79009313463A683968FFF7FFF800BF4E
S1132FB00837BD4680BD000080B582B000AF0E4B1F
S1132FC001221A64FFF768FF0346FB713B1D184694
S1132FD0FFF772FDFB790F2B0AD93B79022B07D936
S1132FE0064B1B6823F05003044A43F0100313609C
S1132FF000BF0837BD4680BD00000C40C0800C40B7
S113300080B483B000AF7860034A7B68936100BFEB
S11330100C37BD4680BC70470000084080B483B0C4
S113302000AF7860054BDA6904497B681343CB61D0
S113303000BF0C37BD4680BC704700BF000008408D
S113304080B500AF4FF40070FFF732FF074B1B68E9
S1133050591C074BA3FB01231A0913465B001344B5
S1133060DB00CA1A014B1A6000BF80BD9C0000201F
S1133070ABAAAAAA80B500AF4FF48060FFF718FF8F
S1133080084B1B78002B14BF01230023DBB283F011
S11330900103DBB203F00103DAB2024B1A7000BF82
S11330A080BD00BFA000002080B400AF044B1B68AB
S11330B00133034A136000BFBD4680BC704700BFA4
S11330C0A400002080B582B002AF01211C48FEF7A5
S11330D0EBFA0023012209210120FFF7D1F8002394
S11330E001220A210120FFF7CBF8012304220F213A
S11330F00320FFF7C5F80123042203210320FFF76F
S1133100BFF8012300930123002209210120FFF7C6
S113311037FF01230093012300220A210120FFF736
S11331202FFF0120FFF748FE0120FFF729FE0B20A7
S1133130FFF742FE0B20FFF723FE00BFBD4680BD14
S113314000D2040080B500AF0220FFF759FF144BF2
S11331501B78002B21D0134B1B68002B03D1124B7F
S11331601B68002B12D0104B1B68002B05D00E4B94
S11331701B68013B0C4A13600FE00B4B3B221A60A7
S1133180084B1B68013B074A136006E00020FDF76B
S1133190A3F80120FDF7A0F8FFE700BF80BD00BF42
S11331A0A00000209C0000200C00002080B582B00C
S11331B000AF1A4A3B1D1268114619800233120CE3
S11331C01A7001211648FEF76FFA02211548FEF71E
S11331D07DFC20211448FEF735F901211248FEF741
S11331E063FA00233B7100237B710123BB713B1DF8
S11331F01846FFF739FC40F2FF310020FFF706FCC8
S11332001E20FFF7BDFD0220FFF708FF0120FFF796
S113321019FC00BF0837BD4680BD00BF283D000033
S1133220D0433E0002001E008016120080B582B01A
S113323000AFFDF733FD1148FDF74CFD0346002BAD
S113324002D00123FB7101E00023FB71FDF736FD81
S11332500B4B1B78FA799A420BD0FB791846FDF791
S1133260C5FAFB7919460120FDF7D8FB044AFB791E
S1133270137000BF0837BD4680BD00BF9A9939401E
S1133280A100002080B485B000AF7860074B1B68B4
S1133290FB6000BF054B1A68FB68D31A7A689A4230
S11332A0F8D800BF1437BD4680BC7047A400002086
S11332B080B586B000AFF860B9607A6000237B61A6
S11332C01AE00F210320FFF72FFEBB68FA6802FB08
S11332D003F31846FFF7D6FF0F210320FFF7F8FD8D
S11332E0BB68C3F10103FA6802FB03F31846FFF756
S11332F0C9FF7B6901337B617A697B689A42E0DBB1
S113330000BF1837BD4680BD80B584B000AF012131
S11333100820FDF783FB3548FDF70CFCFB7B83F0AD
S11333200103DBB2002B1AD0314B1B78002B16D0D3
S11333300023BB6010E003210320FFF7F5FD02200A
S1133340FFF7A0FF03210320FFF7C2FD1220FFF7C0
S113335099FFBB680133BB60BB68092BEBDD244BD1
S11333601B78FB73FFF762FF224B1B68642202FB8E
S113337003F2214B1B6813441846FDF793FA1D4BC7
S11333801B68002B2ED11C4B1B68002B2AD1002359
S11333907B6010E003210320FFF7C6FD0120FFF747
S11333A071FF03210320FFF793FD1220FFF76AFF4B
S11333B07B6801337B607B68092BEBDD4FF4FA7289
S11333C000210120FFF774FF4FF4FA70FFF75AFF52
S11333D0074B1B7883F00103DBB2002BEED0054BC7
S11333E001221A600120FEF7FFFD97E72C3D000043
S11333F0A00000209C0000200C00002080B500AF3D
S1133400FFF7DAFDFCF788FF1148FEF7B1F9024631
S1133410104BA3FB02239B091846FFF715FD034637
S1133420002B00D0FEE7FFF731FD0B4B1B7818464D
S1133430FDF7DCF9FCF704FF0020FCF72DFFFFF794
S1133440B5FEFFF73FFEFFF75FFF0023184680BD80
S113345070000200D34D6210A100002080F00040F3
S113346002E000BF81F0004142001FBF5FEA410358
S113347092EA030F7FEA226C7FEA236C6AD04FEA58
S11334801262D2EB1363C1BFD2184140484041409D
S1133490B8BF5B42192B88BF704710F0004F40F44F
S11334A0000020F07F4018BF404211F0004F41F46B
S11334B0000121F07F4118BF494292EA030F3FD037
S11334C0A2F1010241FA03FC10EB0C00C3F120034A
S11334D001FA03F100F0004302D5494260EB4000D9
S11334E0B0F5000F13D3B0F1807F06D340084FEA44
S11334F0310102F10102FE2A51D2B1F1004F40EB39
S1133500C25008BF20F0010040EA030070474900A0
S113351040EB000010F4000FA2F10102EDD1B0FA6B
S113352080FCACF1080CB2EB0C0200FA0CF0AABF60
S113353000EBC25052421843BCBFD04018437047FE
S113354092F0000F81F4000106BF80F40000013204
S1133550013BB5E74FEA41037FEA226C18BF7FEADB
S1133560236C21D092EA030F04D092F0000F08BF1D
S11335700846704790EA010F1CBF0020704712F004
S11335807F4F04D1400028BF40F00040704712F143
S113359000723CBF00F50000704700F0004343F0A8
S11335A0FE4040F4000070477FEA226216BF0846DE
S11335B07FEA23630146420206BF5FEA412390EAA1
S11335C0010F40F4800070474FF0000304E000BF97
S11335D010F0004348BF40425FEA000C08BF704748
S11335E043F0964301464FF000001CE050EA01020C
S11335F008BF70474FF000030AE000BF50EA010221
S113360008BF704711F0004302D5404261EB41010D
S11336105FEA010C02BF84460146002043F0B64332
S113362008BFA3F18053A3F50003BCFA8CF2083A57
S1133630A3EBC25310DB01FA02FC634400FA02FC60
S1133640C2F12002BCF1004F20FA02F243EB020067
S113365008BF20F00100704702F1200201FA02FCC9
S1133660C2F1200250EA4C0021FA02F243EB0200BC
S113367008BF20EADC7070474FF0FF0C1CEAD05200
S11336801EBF1CEAD15392EA0C0F93EA0C0F6FD0C1
S11336901A4480EA010C400218BF5FEA41211ED09F
S11336A04FF0006343EA501043EA5111A0FB01318B
S11336B00CF00040B1F5000F3EBF490041EAD37160
S11336C05B0040EA010062F17F02FD2A1DD8B3F1DC
S11336D0004F40EBC25008BF20F00100704790F04B
S11336E0000F0CF0004C08BF49024CEA502040EA9D
S11336F051207F3AC2BFD2F1FF0340EAC250704763
S113370040F400004FF00003013A5DDC12F1190FA0
S1133710DCBF00F000407047C2F10002410021FA12
S113372002F1C2F1200200FA02FC5FEA310040F12A
S1133730000053EA4C0308BF20EADC70704792F0A3
S1133740000F00F0004C02BF400010F4000F013ADB
S1133750F9D040EA0C0093F0000F01F0004C02BFD6
S1133760490011F4000F013BF9D041EA0C018FE745
S11337700CEAD15392EA0C0F18BF93EA0C0F0AD04B
S113378030F0004C18BF31F0004CD8D180EA010071
S113379000F00040704790F0000F17BF90F0004F0A
S11337A0084691F0000F91F0004F14D092EA0C0FEC
S11337B001D142020FD193EA0C0F03D14B0218BF7F
S11337C0084608D180EA010000F0004040F0FE40C5
S11337D040F40000704740F0FE4040F44000704761
S11337E04FF0FF0C1CEAD0521EBF1CEAD15392EAE0
S11337F00C0F93EA0C0F69D0A2EB030280EA010CD0
S113380049024FEA402037D04FF0805343EA111168
S113381043EA10130CF000408B4238BF5B0042F1C6
S11338207D024FF4000C8B4224BF5B1A40EA0C006B
S1133830B3EB510F24BFA3EB510340EA5C00B3EB9D
S1133840910F24BFA3EB910340EA9C00B3EBD10F8B
S113385024BFA3EBD10340EADC001B0118BF5FEADD
S11338601C1CE0D1FD2A3FF650AF8B4240EBC25006
S113387008BF20F0010070470CF0004C4CEA5020C7
S11338807F32C2BFD2F1FF0340EAC250704740F416
S113389000004FF00003013A37E792F0000F00F008
S11338A0004C02BF400010F4000F013AF9D040EA86
S11338B00C0093F0000F01F0004C02BF490011F41A
S11338C0000F013BF9D041EA0C0195E70CEAD15312
S11338D092EA0C0F08D142027FF47DAF93EA0C0FF9
S11338E07FF470AF084676E793EA0C0F04D14B02DD
S11338F03FF44CAF08466EE730F0004C18BF31F08F
S1133900004CCAD130F000427FF45CAF31F0004388
S11339107FF43CAF5FE700BF42000ED2B2F1FE4F2E
S11339200BD34FF09E03B3EB126209D44FEA00238A
S113393043F0004323FA02F070474FF00000704751
S113394012F1610F01D1420202D14FF0FF307047F2
S11339504FF00000704700BF0028B8BF40427047D6
S113396008B5074B044613B10021AFF30080054BA3
S11339701868836A03B19847204600F039F800BFFD
S113398000000000343D000070B500250C4E0D4CC5
S1133990A41BA410A54209D100F02CF800250A4E5E
S11339A00A4CA41BA410A54205D170BD56F82530BD
S11339B098470135EEE756F8253098470135F2E788
S11339C070000020700000207000002074000020AF
S11339D003460244934200D1704703F8011BF9E700
S11339E0034613F8012B002AFBD1181A013870473B
S11339F0FEE700BFF8B500BFF8BC08BC9E467047A0
S1133A00F8B500BFF8BC08BC9E467047040000002F
S1133A10020000000400000003000000010105078B
S1133A20070304020302040605060D0E0E0E0D0D17
S1133A300D0D0E0E0E0E0D0D0101050707030402F8
S1133A400302040605060F1010100F0F0F0F1010BD
S1133A5010100F0F010105070703040203020406F7
S1133A600506111212121111111112121212111152
S1133A700101050707030402030204060506131CDB
S1133A801C1C131313131C1C1C1C1313000105070B
S1133A90060203010302040604051D1E1E1E1D1D4D
S1133AA01D1D1E1E1E1E1D1D00010507060203010D
S1133AB00302040604051F2020201F1F1F1F2020AF
S1133AC020201F1F01010507070304020302040647
S1133AD00506212222222121212122222222212102
S1133AE007050201030604232323232323230705B5
S1133AF002010306042424242424242407050201A7
S1133B000306042525252525252507050201030689
S1133B10042626262626262600010702062727270E
S1133B2027270000000000000000131211100F0EE0
S1133B300D0C0000000021252426010103040402C9
S1133B4003020D0E0D0D0E0D0E0E010103040402F1
S1133B5003020F100F0F100F1010010103040402D1
S1133B6003021112111112111212010103040402B1
S1133B700302131C13131C131C1C00010203040175
S1133B8003021D1E1D1D1E1D1E1E00010203040135
S1133B9003021F201F1F201F202001010304040211
S1133BA003022122212122212222050707040406DF
S1133BB005060E0E0D0D0E0E0D0D05070704040669
S1133BC0050610100F0F10100F0F05070704040649
S1133BD00506121211111212111105070704040629
S1133BE005061C1C13131C1C1313050706030406EB
S1133BF004051E1E1D1D1E1E1D1D050706030406AD
S1133C00040520201F1F20201F1F0507070404068A
S1133C100506222221212222212100000000001178
S1133C2080020000000002060000200039000F009E
S1133C300000401500204004001000223F00060050
S1133C405B044F0466046D047D0407007F046F0465
S1133C5000000000000A000080200000FFFF77043D
S1133C60790A3900B020790071007D0476040600D9
S1133C700E00700A3800B602B6083F0073043F080D
S1133C80730C6D0401113E0030223628802A6E0424
S1133C900922390080080F000100080000015810B3
S1133CA07C0458005E04582071040C0C7404040055
S1133CB00E00700C3800541454045C04730467043C
S1133CC05004080C78001C0010201428802A0C08CA
S1133CD0482000003F0006005B004F0066006D00B6
S1133CE07D0007007F006F0077007C0039005E00D4
S1133CF07900710040000000010000000300400052
S1133D000C000000000000000000000001000000A2
S1133D100700000000000000000000000100000097
S1133D202700000001000000010001005445412D5E
S10F3D30424F540010000020000000006E
S10B3D3CE0C3FF7F0100000059
S1133D44006CDC0200800000809FD50005000000A8
S1133D54000000000000000000000000000000005B
S1133D64000000000000000000000000000000004B
S1133D74000000000000000000000000000000003B
S1133D84000000000000000000000000000000002B
S1133D94000000000000000000000000000000001B
S1133DA4000000000000000000000000000000000B
S10B3DB401010000DD00000024
S9030431C7
